:100000000C9463000C948B000C948B000C944408AB
:100010000C9444080C9444080C948B000C948B00B2
:100020000C948B000C948B000C948B000C94BC08EB
:100030000C948B000C948B000C948B000C948B0014
:100040000C94FA070C948B000C94C8070C94A2072C
:100050000C948B000C948B000C948B000C948B00F4
:100060000C948B000C948B000000000024002700EF
:100070002A0000000008000201000003040700003D
:1000800000000000000000000000230026002900FE
:1000900000000000250028002B00040404040404D0
:1000A0000404020202020202030303030303010227
:1000B00004081020408001020408102001020408F6
:1000C0001020BD091C1111241FBECFEFD8E0DEBFE8
:1000D000CDBF11E0A0E0B1E0E6EBF8E202C0059090
:1000E0000D92A03CB107D9F723E0A0ECB1E001C02C
:1000F0001D92AE38B207E1F710E0C2E6D0E004C0CE
:100100002197FE010E943414C136D107C9F70E941D
:10011000450B0C944E140C9400000F931F93CF9337
:10012000DF93C0915203E3E5F3E0CD3211F0E2E555
:10013000F3E08F0120E030E0A901D801DD918D01CD
:1001400080ED8D0F8A3090F4AAE0B0E00E947D111E
:100150002D2FDD0F330B440B550B260F371F481F78
:10016000591F2053310941095109E7CFA4E6B0E0F6
:100170000E947D11AB01BC01DF01819190ED980FD0
:100180009A30D0F38E3259F511968C91119790EDEB
:10019000980F9A3020F5082E000C990BC0972AE092
:1001A000289F8001299F100D1124012E000C220B85
:1001B000330B400F511F621F731F12968C9190EDED
:1001C000980F9A3060F4082E000C990BC097092EF6
:1001D000000CAA0BBB0B480F591F6A1F7B1FCD32A7
:1001E00039F470956095509541955F4F6F4F7F4FF3
:1001F000CB01BA01DF91CF911F910F9108954F92DA
:100200005F926F927F928F929F92AF92BF92CF92A6
:10021000DF92EF92FF921F93CF93DF93C2E5D3E07B
:10022000FE01C12CD12C7601119180ED810F8A3015
:10023000A8F4AAE0B0E0A70196010E947D11C12EAA
:10024000110FDD08EE08FF08C60ED71EE81EF91EC6
:1002500080E3C81AD108E108F108E6CFC701B6016A
:1002600024E630E040E050E00E9490119B01AC0198
:1002700060EA76E881E090E00E9404144B015C01A2
:100280009E01899190ED980F9A30D0F38E3221F52E
:10029000E901219680E1482E87E2582E612C712CCD
:1002A000A99180ED8A0F8A30B8F40A2E000CBB0B9E
:1002B000D097A30192010E948811860E971EA81E56
:1002C000B91EC301B2012AE030E040E050E00E94D4
:1002D000901129013A01E4CFC701B60124E630E0CC
:1002E00040E050E00E94901160E472E48FE090E002
:1002F0000E9404146B017C01C501B4016D5F7F4F46
:100300008F4F9F4F26E030E040E050E00E94901178
:10031000C701B601620F731F841F951FDF91CF9134
:100320001F91FF90EF90DF90CF90BF90AF909F9084
:100330008F907F906F905F904F900895AF92BF9293
:10034000CF92DF92EF92FF920F931F93CF93DF93A1
:100350006C017B018B01040F151FEB015E01AE18D0
:10036000BF08C017D10759F06991D601ED91FC91F2
:100370000190F081E02DC6010995892B79F7C5011F
:10038000DF91CF911F910F91FF90EF90DF90CF9071
:10039000BF90AF900895FC01538D448D252F30E020
:1003A000842F90E0821B930B541710F0CF96089582
:1003B00001970895FC01918D828D981761F0A28DAF
:1003C000AE0FBF2FB11D5D968C91928D9F5F9F7375
:1003D000928F90E008958FEF9FEF0895FC01918D2B
:1003E000828D981731F0828DE80FF11D858D90E098
:1003F00008958FEF9FEF0895FC01918D228D892F35
:1004000090E0805C9F4F821B91098F73992708951C
:100410008CE192E00E94FC0121E0892B09F420E0AC
:10042000822F089580E090E0892B29F00E94080235
:1004300081110C9400000895FC01A48DA80FB92F20
:10044000B11DA35ABF4F2C91848D90E001968F73FC
:100450009927848FA689B7892C93A089B1898C911B
:10046000837080648C93938D848D981306C002886A
:10047000F389E02D80818F7D80830895EF92FF9234
:100480000F931F93CF93DF93EC0181E0888F9B8DB7
:100490008C8D98131AC0E889F989808185FF15C071
:1004A0009FB7F894EE89FF896083E889F989808194
:1004B0008370806480839FBF81E090E0DF91CF9163
:1004C0001F910F91FF90EF900895F62E0B8D10E085
:1004D0000F5F1F4F0F731127E02E8C8D8E110CC0F4
:1004E0000FB607FCFACFE889F989808185FFF5CF3F
:1004F000CE010E941C02F1CFEB8DEC0FFD2FF11D00
:10050000E35AFF4FF0829FB7F8940B8FEA89FB897B
:1005100080818062CFCFCF93DF93EC01888D8823D9
:10052000B9F0AA89BB89E889F9898C9185FD03C056
:10053000808186FD0DC00FB607FCF7CF8C9185FF3B
:10054000F2CF808185FFEDCFCE010E941C02E9CF62
:10055000DF91CF91089590E0FC01EE58FF4F249178
:10056000FC01E255FF4F3491FC01E656FF4FE49148
:10057000EE23C9F0222339F0233001F1A8F4213011
:1005800019F1223029F1F0E0EE0FFF1FE057FF4F85
:10059000A591B4918FB7F894EC91611126C0309574
:1005A0003E233C938FBF08952730A9F02830C9F02F
:1005B000243049F7809180008F7D03C080918000B6
:1005C0008F7780938000DFCF84B58F7784BDDBCFBA
:1005D00084B58F7DFBCF8091B0008F778093B00082
:1005E000D2CF8091B0008F7DF9CF3E2BDACFCF9361
:1005F000DF9390E0FC01E255FF4F249186569F4F18
:10060000FC0184918823D1F090E0880F991FFC01B0
:10061000E859FF4FA591B491FC01E057FF4FC591F8
:10062000D49161110EC09FB7F8948C91E22FE095A0
:100630008E238C932881E223E8839FBFDF91CF91A3
:1006400008958FB7F894EC91E22BEC938FBFF6CF1F
:100650003FB7F89480910A0290910B02A0910C028E
:10066000B0910D0226B5A89B05C02F3F19F0019649
:10067000A11DB11D3FBFBA2FA92F982F8827BC01FC
:10068000CD01620F711D811D911D42E0660F771F24
:10069000881F991F4A95D1F708958F929F92AF9224
:1006A000BF92CF92DF92EF92FF924B015C010E94CA
:1006B00028036B017C010E9428036C197D098E09B7
:1006C0009F09683E734081059105A8F321E0821AD5
:1006D0009108A108B10888EEC80E83E0D81EE11C7D
:1006E000F11C81149104A104B10429F7FF90EF904B
:1006F000DF90CF90BF90AF909F908F9008952FB7CD
:10070000F89460910602709107028091080290911E
:1007100009022FBF08952091030230910402281787
:10072000390771F49091020280910102981741F00B
:10073000E0910202F0E0EF53FE4F808190E00895D7
:100740008FEF9FEF08950895EF92FF920F931F93FD
:10075000CF93DF93DC015C96ED90FC905D97E11404
:10076000F10479F481E090E013969C938E931297B4
:1007700090E080E0DF91CF911F910F91FF90EF907B
:1007800008955196ED91FC91529750968C91509707
:10079000982F90950FB75E962C915E97122F12703E
:1007A00021FD6095F8942081112319F1282B2083D5
:1007B000E7012197F1F728E0462F50E0308160FFF4
:1007C0001AC0382B3083E7012197F1F7BA017595EC
:1007D0006795215089F7112381F0808189238083D7
:1007E0000FBF5C968D919C910197F1F781E090E0AD
:1007F000C1CF2923DCCF3923E5CF9081892BEFCFDF
:1008000020910302309104022817390771F4809176
:1008100001022091020290E0805C9F4F821B9109AF
:1008200060E470E00E942014089590E080E0089554
:10083000209103023091040228173907B9F49091EE
:10084000020280910102981789F0E0910202F0E023
:10085000EF53FE4F80812091020230E02F5F3F4F27
:100860002F7333272093020290E008958FEF9FEFBC
:100870000895CF92DF92EF92FF92CF93DF93EC0136
:10088000603282E07807CCF5653B710514F064EBCB
:1008900070E0898128E830E0281B310987FD339515
:1008A000220F331F220F331F6901330FEE08FF0899
:1008B0008A8128E532E0281B310987FD3395220F14
:1008C000331F220F331F032E000C440B550B2C1922
:1008D0003D094E095F09DB0177FF02C0B0E0A0E0EF
:1008E0000E94881124EB30E040E050E00E945E114D
:1008F000C20ED31EE41EF51EB601E881EC3070F581
:10090000298188E890E0821B910927FD9395880F43
:10091000991F880F991F681779077CF02A8188E54D
:1009200092E0821B910927FD9395880F991F880FEC
:10093000991F681779070CF4CB010297880F991F4C
:100940004FB7F8942E2F30E0F901EE0FFF1FE20FA2
:10095000F31FE754FD4F928381834FBFDF91CF9107
:10096000FF90EF90DF90CF900895892B79F410924B
:10097000800082E0809381001092850010928400B4
:10098000B19A80916F00826080936F0008950895FE
:1009900090E080E00895CF93DF93EC0160E08E81DA
:1009A0000E94AB0261E08E810E94AB0260E08E810A
:1009B0000E94AB028BE891E00197F1F7DF91CF91B4
:1009C0000895CF92DF92EF92FF920F931F93CF93F0
:1009D000DF936C017C0187E0E80EF11CD0E0C0E001
:1009E000062F10E0B8010C2E02C0759567950A9489
:1009F000E2F76170F70181917F010E94AB022196BD
:100A0000C430D10579F7C601DF91CF911F910F91C5
:100A1000FF90EF90DF90CF900C94CB04CF92DF92B9
:100A2000EF92FF920F931F93CF93DF93EC01F62E7B
:100A3000642F8C810E94AB028D818F3F19F060E0A2
:100A40000E94AB020F2D10E08F8584FF25C06E0140
:100A500087E0C80ED11CF12CE12CB8010E2C02C08D
:100A6000759567950A94E2F76170F60181916F01BF
:100A70000E94AB02FFEFEF1AFF0A88E0E816F104CC
:100A800061F7CE01DF91CF911F910F91FF90EF9011
:100A9000DF90CF900C94CB04B80184E075956795F6
:100AA0008A95E1F7CE010E94E1046F2DCE01DF911E
:100AB000CF911F910F91FF90EF90DF90CF900C940A
:100AC000E10440E0682F8EED92E00C940E05CF9388
:100AD000DF93823029F49091ED0298609093ED02BB
:100AE0008093F1021092F20280E48093F30280E19D
:100AF0008093F40280E58093F50261E08091E20248
:100B00000E94F7028091E3028F3F19F061E00E949A
:100B1000F70261E08091E4020E94F702CEEDD2E09C
:100B20009E012E5D32408091ED0284FD0BC084E079
:100B300090E021962817390744F461E08E810E94E5
:100B4000F702EECF88E090E0F4CF8BE39DE00197D1
:100B5000F1F760E08091E2020E94AB0260E08091D8
:100B6000E4020E94AB028091E3028F3F19F060E043
:100B70000E94AB028091ED0284FD39C063E08EEDEE
:100B800092E00E94E104CBE4D6E4CE010197F1F7B4
:100B900063E08EED92E00E94E1042197F1F763E0BB
:100BA0008EED92E00E94E10483E592E00197F1F777
:100BB00062E08EED92E00E94E1048091ED0280629D
:100BC0000E94610584E08093EE028CE00E94610542
:100BD00081E00E9461058BE39FE10197F1F782E0DC
:100BE0008093EF0286E0DF91CF910C9461058062E3
:100BF0000E9461058BE496E40197F1F78091ED0284
:100C000080620E94610583E592E00197F1F780918F
:100C1000ED0280620E946105D0CF9091F1028917A8
:100C200010F08FEF890FE82FF0E0E252FD4F84893A
:100C300080680C94610541E00E940E0581E090E01F
:100C40000895FB0101900020E9F73197AF01461BA1
:100C5000570BDC01ED91FC910280F381E02D0994AA
:100C60008F929F92AF92BF92EF92FF920F931F933A
:100C7000CF93DF93CDB7DEB7A1970FB6F894DEBF61
:100C80000FBECDBF7C01FA01CB0119A2223008F4BE
:100C90002AE08E010F5D1F4F822E912CB12CA12CCA
:100CA000BF01A50194010E949011F901CA016A30A7
:100CB0000CF5605DD8016E938D01232B242B252B21
:100CC00079F790E080E0109721F0BD01C7010E9404
:100CD0002106A1960FB6F894DEBF0FBECDBFDF91FF
:100CE000CF911F910F91FF90EF90BF90AF909F9089
:100CF0008F900895695CDECF4F925F926F927F92E2
:100D00008F929F92AF92BF92CF92DF92EF92FF921B
:100D1000CF936B017C01AC019B010E94FF1360E348
:100D200071E0811126C046015701E894B7F82FEF12
:100D30003FEF4FE75FE7C501B4010E94FF13811148
:100D40000CC02FEF3FEF4FE75FE7C501B4010E94F2
:100D50002E1264E371E0181664F02FEF3FEF4FE7B7
:100D60005FE4C701B6010E948D1318169CF468E376
:100D700071E08CE192E0CF91FF90EF90DF90CF9007
:100D8000BF90AF909F908F907F906F905F904F90AB
:100D90000C9421062FEF3FEF4FE75FECC701B60140
:100DA0000E942E1287FDE3CF20E030E0A901C701A9
:100DB000B6010E942E12B12CA12C87FF0AC06DE251
:100DC0008CE192E00E943E025C01F7FAF094F7F8A1
:100DD000F0942CEB37E346E055E3C701B6010E94DF
:100DE000C2112B013C010E94AC126B017C010E94DC
:100DF000DB129B01AC01C301B2010E94C1112B01A6
:100E00003C012AE0B701A6018CE192E00E94300685
:100E10007C01EA0CFB1C6EE28CE192E00E943E0237
:100E2000E80EF91EC7E0C15029F120E030E040E2B1
:100E300051E4C301B2010E9492132B013C010E94B4
:100E4000AC124B01B12CA12C2AE0B501A4018CE11C
:100E500092E00E943006E80EF91EC501B4010E941E
:100E6000DB129B01AC01C301B2010E94C1112B0135
:100E70003C01D9CFC701CF91FF90EF90DF90CF9089
:100E8000BF90AF909F908F907F906F905F904F90AA
:100E900008950F931F93CF93DF93C82FD62F172F4B
:100EA00061E00E94F70260E08D2F0E94F70260E08F
:100EB0008C2F0E94AB0283E090E00197F1F761E094
:100EC0008C2F0E94AB0283E290E00197F1F760E083
:100ED0008C2F0E94AB028D2F912FFC01E255FF4F0A
:100EE0006491FC01E656FF4FE491F0E0EE0FFF1F26
:100EF000EA57FF4F8591949100E412E42FE030E02F
:100F0000462F0E947809611571058105910529F028
:100F10006F5F7F4F8F4F9F4F9F700E94DD1226E9BA
:100F200033E44BE05DE30E94921320E030E040E0C8
:100F30005FE30E9492130E94A512DF91CF911F914F
:100F40000F9108951F920F920FB60F9211242F93B5
:100F50003F934F935F936F937F938F939F93AF9341
:100F6000BF93EF93FF938CE192E00E941C02FF91EC
:100F7000EF91BF91AF919F918F917F916F915F9111
:100F80004F913F912F910F900FBE0F901F9018958A
:100F90001F920F920FB60F9211242F938F939F934E
:100FA000EF93FF93E0912C02F0912D028081E0916C
:100FB0003202F091330282FD1BC090818091350294
:100FC0008F5F8F7320913602821741F0E0913502D6
:100FD000F0E0E45EFD4F958F80933502FF91EF9135
:100FE0009F918F912F910F900FBE0F901F9018958A
:100FF0008081F4CF1F920F920FB60F9211242F937E
:101000003F938F939F93AF93BF93809106029091EC
:101010000702A0910802B09109023091050223E075
:10102000230F2D3758F50196A11DB11D2093050200
:101030008093060290930702A0930802B0930902DE
:1010400080910A0290910B02A0910C02B0910D02C6
:101050000196A11DB11D80930A0290930B02A093EB
:101060000C02B0930D02BF91AF919F918F913F9170
:101070002F910F900FBE0F901F90189526E8230F09
:101080000296A11DB11DD2CF1F920F920FB60F92E3
:1010900011242F933F934F935F936F937F938F937D
:1010A0009F93AF93BF93EF93FF93E0910302F0916F
:1010B0000402309749F0A685B7858585968D91FF06
:1010C00014C09C918923A1F4FF91EF91BF91AF913E
:1010D0009F918F917F916F915F914F913F912F9150
:1010E0000F900FBE0F901F9018959C91892361F768
:1010F000A389B4899C918589809589238C9386895D
:1011000097890197F1F7608D718DA685B785558513
:1011100038E020E0CB010197F1F7822F90E0959520
:101120008795282F4C91452309F02068315091F77D
:10113000868D81FD20958091010290E001968F734C
:10114000992730910202381799F0A0910102B0E07E
:10115000AF53BE4F2C9380930102828D938D0197E4
:10116000F1F7A389B4898C919589892B8C93ACCFA5
:10117000868D8160868FF1CF1F920F920FB60F92EE
:1011800011242F933F934F935F936F937F938F938C
:101190009F93AF93BF93CF93DF93EF93FF93809190
:1011A000C001C091DD02D0E087FF24C0109285000D
:1011B000109284008091C0018F5F8093C001809164
:1011C000C001082E000C990B8C179D0724F4809108
:1011D000C0018C30C4F18091840090918500049608
:1011E00080349C4908F47AC08091840090918500F5
:1011F000049676C08091C001082E000C990B8C17C4
:101200009D07C4F6E091C0018E2FEE0F990BFC01F3
:10121000EE0FFF1FE80FF91FE754FD4F808186FF97
:10122000C9CFE091C0018E2FEE0F990BFC01EE0F9C
:10123000FF1FE80FF91FE754FD4F808160E08F73B7
:101240000E94AB02B7CF2091840030918500E091DD
:10125000C0018E2FEE0F990BFC01EE0FFF1FE80F60
:10126000F91FE754FD4F81819281820F931F909364
:10127000890080938800E091C0018E2FEE0F990BBA
:10128000FC01EE0FFF1FE80FF91FE754FD4F8081AF
:1012900086FF11C0E091C0018E2FEE0F990BFC016B
:1012A000EE0FFF1FE80FF91FE754FD4F808161E04B
:1012B0008F730E94AB02FF91EF91DF91CF91BF91AD
:1012C000AF919F918F917F916F915F914F913F91DE
:1012D0002F910F900FBE0F901F90189580E49CE9FE
:1012E00090938900809388008FEF8093C001E3CFB3
:1012F000CF92DF92EF92FF920F931F93E82FF92F77
:1013000005C0015011092109310961F1908196232D
:101310009417B9F305C0015011092109310911F1E0
:10132000908196239413F7CFC12CD12CE12CF12C72
:101330000AC08FEFC81AD80AE80AF80A0C151D056A
:101340002E053F0579F080818623841791F36C2D5B
:101350007D2D8E2D9F2D1F910F91FF90EF90DF908F
:10136000CF90089560E070E080E090E01F910F91D1
:10137000FF90EF90DF90CF90089510921F0210928F
:101380001E0288EE93E0A0E0B0E0809320029093EC
:101390002102A0932202B093230224E031E0309393
:1013A0001D0220931C0225EC30E03093290220938B
:1013B000280224EC30E030932B0220932A0220EC08
:1013C00030E030932D0220932C0221EC30E030935A
:1013D0002F0220932E0222EC30E030933102209332
:1013E000300226EC30E03093330220933202109228
:1013F0003502109236021092370210923802109283
:101400007203109271038093730390937403A093FB
:101410007503B093760382E291E09093700380931A
:101420006F03109286031092850310928803109226
:10143000870310928A031092890310928C031092F2
:101440008B0360918D036E7F6D7F60938D03669536
:10145000617081E068278AE00E94AB0261E08AE067
:101460000E94F702E8EBF0E0E491E0937F03E4EA06
:10147000F0E0E491F0E0EE0FFF1FE057FF4F8591A1
:101480009491909381038093800360E089E00E94AF
:10149000F70280918D0381FD04C061E089E00E9424
:1014A000AB0289E080937B03E7EBF0E0E491E0930B
:1014B0007C03E3EAF0E0E491F0E0EE0FFF1FEA576F
:1014C000FF4F8591949190937E0380937D034FEF1E
:1014D0005FEFBA014093FC025093FD026093FE025D
:1014E0007093FF02109204031092050310920603FA
:1014F000109207038FEF99ECAAE9BBE380930C03EA
:1015000090930D03A0930E03B0930F0380931403E5
:1015100090931503A0931603B093170380931C03B5
:1015200090931D03A0931E03B0931F038093240385
:1015300090932503A0932603B093270380932C0355
:1015400090932D03A0932E03B0932F034093340365
:101550005093350360933603709337038FEF90E019
:1015600090933D0380933C03409340035093410389
:10157000609342037093430340934803509349039D
:1015800060934A0370934B031092500310925103DF
:1015900082E08093610310926203109263031092C1
:1015A0006403109265031092660310926703109211
:1015B000680310926A031092690310926C031092F0
:1015C0006B03109252038091DD028C3008F055C0FD
:1015D00091E0980F9093DD028093F90290E0FC0176
:1015E000EE0FFF1FE80FF91FE754FD4F88EB9BE05C
:1015F000928381838091DD028C3008F042C091E0BB
:10160000980F9093DD028093F60290E0FC01EE0FBC
:10161000FF1FE80FF91FE754FD4F88EB9BE0928313
:1016200081831092E1021092E00286E191E09093B2
:10163000DF028093DE0287E08093E2028FEF8093E7
:10164000E30286E08093E40285E08093E50284E093
:101650008093E60283E08093E70282E08093E802D1
:101660001092E9021092EA021092EB021092EC0240
:101670001092ED0281E00C9467058FEF8093F902E0
:10168000B9CF8FEF8093F602CCCF789484B5826087
:1016900084BD84B5816084BD85B5826085BD85B516
:1016A000816085BD80916E00816080936E00109294
:1016B000810080918100826080938100809181000F
:1016C00081608093810080918000816080938000A0
:1016D0008091B10084608093B1008091B0008160FE
:1016E0008093B00080917A00846080937A0080912A
:1016F0007A00826080937A0080917A008160809382
:101700007A0080917A00806880937A001092C100FC
:10171000E0912C02F0912D0282E08083E09128027A
:10172000F09129021082E0912A02F0912B028FECB5
:10173000808310923402E0913002F091310286E011
:101740008083E0912E02F0912F028081806180835E
:10175000E0912E02F0912F02808188608083E091D9
:101760002E02F0912F02808180688083E0912E020A
:10177000F0912F0280818F7D808360E083E10E9461
:10178000F70261E081E00E94F70282E00E946705B3
:101790008091F9028C3008F043C061E080E10E9442
:1017A000F7028091F902282F30E0F901EE0FFF1FB8
:1017B000E20FF31FE754FD4F9081907C906190837E
:1017C0001092FA021092FB022CE0622F0E94141475
:1017D00090E0829FB001112430E020E0AB01420F85
:1017E000531FFA01EE0FFF1FE40FF51FE754FD4FE3
:1017F000408146FD07C02F5F3F4F2C30310571F708
:101800000E94B504E091F9028E2F90E0FC01EE0FEA
:10181000FF1FE80FF91FE754FD4F8081806480832C
:101820008091F6028C3008F043C061E081E10E94B3
:10183000F7028091F602282F30E0F901EE0FFF1F2A
:10184000E20FF31FE754FD4F9081907C91619083EC
:101850001092F7021092F8022CE0622F0E941414EA
:1018600090E0829FB001112430E020E0AB01420FF4
:10187000531FFA01EE0FFF1FE40FF51FE754FD4F52
:10188000408146FD07C02F5F3F4F2C30310571F777
:101890000E94B504E091F6028E2F90E0FC01EE0F5D
:1018A000FF1FE80FF91FE754FD4F8081806480839C
:1018B0006AE570E086EF92E00E94390402E0DD24E0
:1018C000D39495E4C92E20E0E22E20E0F22EC092BF
:1018D0007C0080917A00806480937A0080917A0005
:1018E00086FDFCCF80917800C0917900DC2FC82F55
:1018F0006DE070E08EE090E00E944907609318026E
:101900007093190280931A0290931B026CE070E0AE
:101910008FE090E00E9449076093140270931502D3
:1019200080931602909317026BE070E082E190E0E2
:101930000E94490760931002709311028093120273
:101940009093130280E00E940D064E010D2E000CB4
:10195000AA08BB082AE0B501A401D7FF0EC041E0E8
:101960006DE28EED92E00E940E0544275527BA01E4
:10197000481959096A097B092AE08EED92E00E9414
:1019800030068091140290911502A0911602B09138
:101990001702C397A105B1050CF0C1C381E00E94F5
:1019A0000D066CE371E08EED92E00E9421066EE47C
:1019B00071E08CE192E00E94210664E670E080E034
:1019C00090E00E944D0369E571E08CE192E00E9495
:1019D000210664E670E080E090E00E944D036AE139
:1019E0008CE192E00E943E0264E771E08CE192E0BB
:1019F0000E94210664E670E080E090E00E944D03C2
:101A00000E947F034B015C0110E00E947F03681974
:101A100079098A099B09683E73408105910508F49C
:101A20007CC1112309F480C040900C0350900D0339
:101A300060900E0370900F03809014039090150334
:101A4000A0901603B090170380914803909149032A
:101A5000A0914A03B0914B038F3F9F4FAF4FBF4FB1
:101A600011F00E947F03FFEF4F16F9EC5F06FAE9D1
:101A70006F06FBE37F0609F449C3C301B2010E946C
:101A8000DD1220E034E244E759E40E9433122B01D6
:101A90003C01C501B4010E94DD1220E034E244E7BC
:101AA00059E40E9433124B015C0163E871E08CE160
:101AB00092E00E94210620E030E04AE754E4C301AE
:101AC000B2010E942E12811103C0412C512C32010F
:101AD000C301B2010E947C066FE871E08CE192E0E4
:101AE0000E94210620E030E04AE754E4C501B40139
:101AF0000E942E12811103C0812C912C5401C5012A
:101B0000B4010E947C0668EC70E080E090E00E94E6
:101B10004D036AE18CE192E00E943E0268EC70E0C5
:101B200080E090E00E944D0364E771E08CE192E078
:101B30000E942106C0910E02D0910F02D7FD64C30E
:101B4000BE0189EF92E00E9439046AE070E080E013
:101B500090E00E944D032197D0930F02C0930E0294
:101B6000E9CFCA3209F405C1CC3209F0BBC2809179
:101B700050038C2780935003FCC090916203F0E0E7
:101B8000EE5AFC4F1082D0915103DD2309F46AC153
:101B900020915203822F022E000C990B3FEB320F43
:101BA000363008F0EBC0C7978295807F9091530341
:101BB000292F092E000C330B4FEB490F463008F04C
:101BC000E5C027533109820F90915003891340C11A
:101BD000D0916403DD2309F4CFC080916903909113
:101BE0006A03019690936A0380936903809144038A
:101BF00090914503A0914603B09147038093400321
:101C000090934103A0934203B093430380914C030C
:101C100090914D03A0914E03B0914F0380934803E0
:101C200090934903A0934A03B0934B0380916103BF
:101C3000882309F4B4C0813009F060C080910003AA
:101C400090910103A0910203B09103038093FC02E1
:101C50009093FD02A093FE02B093FF0280910803CF
:101C600090910903A0910A03B0910B0380930403A0
:101C700090930503A0930603B0930703809110038C
:101C800090911103A0911203B091130380930C0360
:101C900090930D03A0930E03B0930F03809118034C
:101CA00090911903A0911A03B0911B038093140320
:101CB00090931503A0931603B09317038091280304
:101CC00090912903A0912A03B0912B0380932403C0
:101CD00090932503A0932603B093270380913003AC
:101CE00090913103A0913203B091330380932C0380
:101CF00090932D03A0932E03B0932F038091620342
:101D00008F5F809362031092630381E0CA3209F00F
:101D100080E080935103D1111D2F8CE192E00E944D
:101D2000FC01892B09F471CE8CE192E00E94DA016A
:101D3000C82F8091650390916603A0916703B091CD
:101D400068030196A11DB11D8093650390936603FE
:101D5000A0936703B0936803C43209F4B6C1E0915D
:101D60006303C5320CF0FDCECA3019F0CD3009F056
:101D7000B9C1EF3008F401CFD0E0C0CF21562630F2
:101D800018F48755910910CFC0970ECF9156963011
:101D900018F42755310917CF2053310914CF8091FA
:101DA000200390912103A0912203B09123038093FB
:101DB0001C0390931D03A0931E03B0931F038091F7
:101DC000000390910103A0910203B091030380935B
:101DD000FC029093FD02A093FE02B093FF0280915B
:101DE000100390911103A0911203B09113038093FB
:101DF0000C0390930D03A0930E03B0930F038091F7
:101E0000180390911903A0911A03B0911B038093BA
:101E1000140390931503A0931603B09317038091B6
:101E20003E0390913F0390933D0380933C03809148
:101E3000380390913903A0913A03B0913B0380930A
:101E4000340390933503A0933603B093370356CFF2
:101E500080916B0390916C03019690936C03809337
:101E60006B038ACF91111CC042E553E0A7E7B1E0B4
:101E7000CA01FC012191CF01222309F4D7C13D9170
:101E80002317B9F3ADE7B1E0FA018191AF018823DF
:101E900009F4CFC19D918917B9F3009361032ECF47
:101EA000E0916103E23009F467CF80915203882307
:101EB00009F462CF20E2E29FF0011124E92B31976F
:101EC000E932F10508F01ACFE859F04F0C943414B8
:101ED000AE0FC90FDE0FF90F04103E1045104F1062
:101EE0005A107E0E7E0E7E0E7E0E7E0E7E0E7E0EB4
:101EF0007E0E7E0E7E0E7E0E7E0E7E0E7E0E7E0E82
:101F00007E0E7E0E7E0E7E0E7E0E7E0E7E0E7E0E71
:101F1000AE0FC30FC90FDE0FF90F04101F102A10E8
:101F2000910FE2E5F3E020E030E0A901719080ED4F
:101F3000870D8A3008F099C0AAE0B0E00E947D11B8
:101F4000272D770C330B440B550B260F371F481FDB
:101F5000591F2053310941095109E8CF0E948D00D2
:101F60006093000370930103809302039093030333
:101F70000E947F036093440370934503809346035C
:101F800090934703BBCE91E0813409F47BC090E08D
:101F900079C00E94FF006093100370931103809337
:101FA0001203909313030E947F0360934C0370937A
:101FB0004D0380934E0390934F03A0CE833509F0D9
:101FC000DBCE8091100390911103A0911203B09188
:101FD0001303B095A095909581959F4FAF4FBF4F3C
:101FE0008093100390931103A0931203B0931303F3
:101FF00085CE0E94FF0060931803709319038093AD
:102000001A0390931B037ACE873509F0B5CE8091E1
:10201000180390911903A0911A03B0911B03B09576
:10202000A095909581959F4FAF4FBF4F8093180318
:1020300090931903A0931A03B0931B035FCE0E94E1
:102040008D00609328037093290380932A03909353
:102050002B0354CE0E948D006093300370933103A4
:10206000809332039093330349CE20930803309337
:10207000090340930A0350930B0340CE91E0813350
:102080000CF485CF9093640339CE82E593E00E94EF
:102090003811992790933F0380933E032FCE0E94DF
:1020A0008D00609338037093390380933A039093C3
:1020B0003B0324CE0E948D00609320037093210384
:1020C000809322039093230319CE109263031092FE
:1020D0006203109250030093610310925103109217
:1020E00064031BCEEE3040F481E08E0F80936303D7
:1020F000F0E0EE5AFC4FC0838091510381110DCE68
:1021000080915003C827C093500307CE412C512C17
:102110008AE7682E84E4782E53014201C6CC809170
:10212000180290911902A0911A02B0911B028536F3
:102130009105A105B10544F56AE570E086EF92E0EE
:102140000E94390481E00E940D066DE971E08EED78
:1021500092E00E942106C0910E02D0910F02C53B71
:10216000D1050CF051C0BE0189EF92E00E94390404
:102170006AE070E080E090E00E944D032196D093E9
:102180000F02C0930E02E7CF81E00E940D066EEAB7
:1021900071E08EED92E00E942106A0900E02B090B8
:1021A0000F02B7FC13C0B50189EF92E00E94390419
:1021B0006AE070E080E090E00E944D0321E0A21A06
:1021C000B108B0920F02A0920E02E7CF80911002E8
:1021D00090911102A0911202B0911302C93CD10555
:1021E0004CF064EB70E04597A105B1054CF06AE551
:1021F00070E006C070E060E04597A105B105BCF74E
:1022000086EF92E00E94390464EF71E080E090E094
:102210000E944D03E114F10409F459CB0E94080215
:10222000882309F44ECB0E9400004BCBD09261036F
:1022300065CD1092610362CD82E291E090937003CC
:1022400080936F0380910302909104028F56934014
:1022500071F4E0918203F091830390818091840373
:1022600080958923808310920402109203020895BE
:10227000FC0188279927E89421912032E9F329303D
:1022800010F02E30C8F32B3241F02D3239F468941F
:1022900004C00E945611820F911D219120532A30B3
:1022A000C0F31EF4909581959F4F08957AE0979F13
:1022B000902D879F802D910D11240895052E97FB59
:1022C0001EF400940E94751157FD07D00E949011D2
:1022D00007FC03D04EF40C94751150954095309541
:1022E00021953F4F4F4F5F4F089590958095709582
:1022F00061957F4F8F4F9F4F08950E94B211A59F08
:10230000900DB49F900DA49F800D911D11240895F0
:10231000B7FF0C947D110E947D11821B930B0895D1
:10232000A1E21A2EAA1BBB1BFD010DC0AA1FBB1FD9
:10233000EE1FFF1FA217B307E407F50720F0A21B4B
:10234000B30BE40BF50B661F771F881F991F1A94B8
:1023500069F760957095809590959B01AC01BD01E2
:10236000CF010895A29FB001B39FC001A39F700D3C
:10237000811D1124911DB29F700D811D1124911D8D
:1023800008955058BB27AA270E94D9110C945313C3
:102390000E94451338F00E944C1320F039F49F3FFF
:1023A00019F426F40C9442130EF4E095E7FB0C9418
:1023B0003C13E92F0E94641358F3BA17620773079E
:1023C0008407950720F079F4A6F50C9486130EF493
:1023D000E0950B2EBA2FA02D0B01B90190010C0135
:1023E000CA01A0011124FF27591B99F0593F50F44D
:1023F000503E68F11A16F040A22F232F342F4427A5
:10240000585FF3CF469537952795A795F04053959C
:10241000C9F77EF41F16BA0B620B730B840BBAF06C
:102420009150A1F0FF0FBB1F661F771F881FC2F7D7
:102430000EC0BA0F621F731F841F48F487957795EB
:102440006795B795F7959E3F08F0B0CF9395880FA5
:1024500008F09927EE0F9795879508950E94181315
:1024600008F481E008950E9447120C9453130E94CF
:102470004C1358F00E94451340F029F45F3F29F0B7
:102480000C943C1351110C9487130C9442130E942A
:10249000641368F39923B1F3552391F3951B550BFE
:1024A000BB27AA2762177307840738F09F5F5F4F27
:1024B000220F331F441FAA1FA9F335D00E2E3AF066
:1024C000E0E832D091505040E695001CCAF72BD07E
:1024D000FE2F29D0660F771F881FBB1F26173707CF
:1024E0004807AB07B0E809F0BB0B802DBF01FF2701
:1024F00093585F4F3AF09E3F510578F00C943C138F
:102500000C9487135F3FE4F3983ED4F38695779558
:102510006795B795F7959F5FC9F7880F911D9695B9
:10252000879597F90895E1E0660F771F881FBB1F15
:10253000621773078407BA0720F0621B730B840BC2
:10254000BA0BEE1F88F7E09508950E94AC126894CC
:10255000B1110C94871308950E946C1388F09F5753
:1025600098F0B92F9927B751B0F0E1F0660F771FB7
:10257000881F991F1AF0BA95C9F714C0B13091F0AD
:102580000E948613B1E008950C948613672F782F6C
:102590008827B85F39F0B93FCCF386957795679572
:1025A000B395D9F73EF490958095709561957F4FDE
:1025B0008F4F9F4F0895E89409C097FB3EF4909584
:1025C0008095709561957F4F8F4F9F4F9923A9F00C
:1025D000F92F96E9BB279395F6958795779567959B
:1025E000B795F111F8CFFAF4BB0F11F460FF1BC0DF
:1025F0006F5F7F4F8F4F9F4F16C0882311F096E972
:1026000011C0772321F09EE8872F762F05C066231F
:1026100071F096E8862F70E060E02AF09A95660FD8
:10262000771F881FDAF7880F9695879597F9089591
:10263000990F0008550FAA0BE0E8FEEF16161706D3
:10264000E807F907C0F012161306E407F50798F03B
:10265000621B730B840B950B39F40A2661F0232B54
:10266000242B252B21F408950A2609F4A140A695D0
:102670008FEF811D811D089597F99F6780E870E0B5
:1026800060E008959FEF80EC089500240A941616E8
:10269000170618060906089500240A941216130650
:1026A000140605060895092E0394000C11F48823DE
:1026B00052F0BB0F40F4BF2B11F460FF04C06F5FFA
:1026C0007F4F8F4F9F4F089557FD9058440F551FD0
:1026D00059F05F3F71F04795880F97FB991F61F0A4
:1026E0009F3F79F087950895121613061406551F1B
:1026F000F2CF4695F1DF08C0161617061806991F87
:10270000F1CF86957105610508940895E894BB277B
:1027100066277727CB0197F908950E94181308F4CC
:102720008FEF08950E94A5130C9453130E94451334
:1027300038F00E944C1320F0952311F00C943C13B8
:102740000C94421311240C9487130E94641370F3A9
:10275000959FC1F3950F50E0551F629FF001729F46
:10276000BB27F00DB11D639FAA27F00DB11DAA1F55
:10277000649F6627B00DA11D661F829F2227B00DA2
:10278000A11D621F739FB00DA11D621F839FA00D2D
:10279000611D221F749F3327A00D611D231F849F7D
:1027A000600D211D822F762F6A2F11249F575040D4
:1027B0009AF0F1F088234AF0EE0FFF1FBB1F661F4F
:1027C000771F881F91505040A9F79E3F510580F018
:1027D0000C943C130C9487135F3FE4F3983ED4F3BE
:1027E000869577956795B795F795E7959F5FC1F7BC
:1027F000FE2B880F911D9695879597F908950E9455
:102800001813880B990B0895DB018F939F930E94F7
:102810007D11BF91AF91A29F800D911DA39F900D3F
:10282000B29F900D11240895991B79E004C0991F5F
:10283000961708F0961B881F7A95C9F7809508951A
:1028400097FB072E16F4009407D077FD09D00E945D
:102850003A1407FC05D03EF4909581959F4F08955A
:10286000709561957F4F0895EE0FFF1F0590F491CD
:10287000E02D0994AA1BBB1B51E107C0AA1FBB1F77
:10288000A617B70710F0A61BB70B881F991F5A95FC
:10289000A9F780959095BC01CD01089510E0C2E69E
:1028A000D0E004C0FE010E9434142196C336D10743
:0628B000C9F7F894FFCF08
:1028B600000000003E029E01CB018B02FC01DA0102
:1028C600EE01000000001B069E01C804C7040000BC
:1028D6000000A4039E01C804A303000418048B038C
:1028E6006E616E00696E66006F76660020447573D1
:1028F6007462696E2069732066756C6C20004154A1
:102906002B434D47463D310D004475737462696E25
:102916002069732066756C6C20696E206172656132
:102926003A210D000D0A004750524D4300475047CB
:102936004741004C61746974756465203D20002030
:102946004C6F6E676974756465203D20002E2E44B9
:102956004F4F52206973204F50454E2E2E002E2E7B
:10296600444F4F5220697320434C4F53452E2E003F
:00000001FF
